:020000020000FC
:0200000033C00B
:100068000FEF0DBF08E00EBF08E00AB909B900E1BB
:100078000AB900E20AB900E40AB900E80AB901E0DD
:1000880004B90E94A2000E94A2000E94A2000E943D
:10009800A2000E94A2000E94A2000E94A2000E9448
:1000A800A2000E94A2000E94A2000E94A2000E9438
:1000B800A2000E94A2000E94A2000E94A2000E9428
:1000C800AC000E94A20040E2542F507F1BB11F7069
:1000D800152B1BB908E005B90E94A20000E005B97C
:1000E800542F5F7052951BB11F70152B1BB908E078
:1000F80005B90E94A20000E005B90E94A2000E9472
:10010800A2004FE0542F507F1BB11F70152B1BB955
:1001180008E005B90E94A20000E005B9542F5F70FD
:1001280052951BB11F70152B1BB908E005B90E9429
:10013800A20000E005B90E94A20017C025E137EC33
:100148000E94A70008953A95F1F72A95E1F70895D6
:1001580040E2542F507F1BB11F70152B1BB908E0CC
:0C01680005B90E94A20000E005B9FFCF1D
:00000001FF
