:020000020000FC
:0200000033C00B
:100068000FEF0DBF08E00EBF08E00AB909B900E1BB
:100078000AB900E20AB900E40AB900E80AB901E0DD
:1000880004B90E9492000E9492000E9492000E946D
:1000980092000E9492000E9492000E9492000E9488
:1000A80092000E9492000E9492000E9492000E9478
:1000B80092000E9492000E9492000E94920048E2E0
:1000C800507F1BB1152B1BB908E005B90E9492009F
:1000D80000E005B95F701BB1152B1BB908E005B925
:1000E8000E94920000E005B90E9492004FE0507F04
:1000F8001BB1152B1BB908E005B90E94920000E05E
:1001080005B95F701BB1152B1BB908E005B90E9432
:10011800920000E005B90E9492000AC025E137EC80
:100128000E94970008953A95F1F72A95E1F7089506
:02013800FFCFF7
:00000001FF
