:020000020000FC
:02000000F3C04B
:020004000EC12B
:100068000591003019F00E945D00FACF08950F93B2
:1000780002950F700A3008F0095F005D0E945D006C
:100088000F910F700A3008F0095F005D0E945D0053
:10009800089507E610E00093C4001093C50008E136
:1000A8000093C10006E00093C20000270093C0003F
:1000B80008950F930091C00005FFFCCF0F910093A6
:1000C800C60008950091C00007FFFCCF0091C6004C
:1000D80008950F921F921DEC019F10E2119D1AE0E6
:1000E800012E102F012D109C10191F900F900895AC
:1000F8002F93212F11271F930E946D0010631F93C8
:100108002A95D1F70F91002B19F00E945D00FACFC4
:100118002F910895FF93EF93DF93CF93BF93AF93FE
:100128009F938F937F936F935F934F933F932F93F7
:100138001F930F93FF92EF92DF92CF92BF92AF92ED
:100148009F928F927F926F925F924F923F922F92DF
:100158001F920F92FEB7EDB720E23327019102E715
:100168000E945D00032F339512E00E947C000AE391
:100178000E945D0001910E943B0000E20E945D0028
:100188000E945D00032F077041F40DE00E945D009E
:100198000AE00E945D000E945D002A9501F70F9019
:1001A8001F902F903F904F905F906F907F908F900F
:1001B8009F90AF90BF90CF90DF90EF90FF900F91FE
:1001C8001F912F913F914F915F916F917F918F91E7
:1001D8009F91AF91BF91CF91DF91EF91FF910895DA
:1001E80000C00E944D0003E00093690001E00DBBD0
:1001F80078940FEF0DBF08E00EBF00E104B90027A7
:100208000AB904E00BB960E011C000E105B961E08A
:10021800189500E005B960E0089509E60E945D00C0
:0E02280000E0601791F30E940D011895FFCFC2
:00000001FF
