:020000020000FC
:0200000033C00B
:0200040062C0D8
:100068000FEF0DBF08E00EBF02E00093690001E04A
:100078000DBB78940BEF0AB901E004B900E10E94C6
:10008800EB000E94120106E00E94EB0048E20E9489
:100098001C010E94F0004EE00E941C010E94F0002A
:1000A80041E00E941C010E94F00047E00E941C01F0
:1000B8000E94F0000E94FA0000E0009300010C94F6
:1000C800A3000E94FE0041E00E941C010E94F00073
:1000D8000E9402010E94FA0043E70E941C010E944C
:1000E800F0000E94FE0040EC0E941C010E94F000FB
:1000F8000E94FA000091000103950093000100910D
:1001080000010E942E011F930E942E011F930E943E
:100118002E011F93A0E34F914A0F0E941C010E94D9
:10012800F0004F914A0F0E941C010E94F0004F916D
:100138004A0F0E941C010E94F00000C0FFCF0091EE
:1001480000010F3FD9F30BB104700430B9F30E94DA
:10015800FE0041E00E941C010E94F0000E94020182
:100168000E94FA0043E70E941C010E94F0000E94CE
:10017800FE0040EC0E941C010E94F0000E94FA0060
:1001880000910001039500930001009100010E9475
:100198002E011F930E942E011F930E942E011F9370
:1001A800A0E34F914A0F0E941C010E94F0004F915A
:1001B8004A0F0E941C010E94F0004F914A0F0E94B2
:1001C8001C010E94F0000FEF0E94EB00B8CF0E94C4
:1001D800F0000A95E1F7089525E137EC0E94F50053
:1001E80008953A95F1F72A95E1F708951BB118603B
:1001F8001BB908951BB1177F1BB9089542E00E94EF
:100208001C010E94F0000E94F000089501E005B969
:1002180000000000000000E005B9089540E2542FF6
:10022800507F1BB11F70152B1BB90E940A0108953E
:10023800542F507F1BB11F70152B1BB90E940A0148
:10024800542F5295507F1BB11F70152B1BB90E945C
:100258000A0108950F921F921DEC019F10E2119D53
:100268001AE0012E102F012D109C10191F900F90CD
:020278000895E7
:00000001FF
