:020000020000FC
:0200000033C00B
:100068000FEF0DBF08E00EBF0FEF0AB901E004B9AA
:100078000E94B8000E94B8000E94B8000E94B80010
:100088000E94B8000E94B8000E94B8000E94B80000
:100098000E94B8000E94B8000E94B8000E94B800F0
:1000A8000E94B8000E94B8000E94B8000E94D200C6
:1000B8000E94B8000E94B8000E94B8000E94B800D0
:1000C8000E94B80048E20E94DC000E94B8004FE09D
:1000D8000E94DC000E94B80041E00E94DC000E94FF
:1000E800B80047E00E94DC000E94B8000E94C200ED
:1000F80048E60E94DC000E94B80045E60E94DC0049
:100108000E94B8004CE60E94DC000E94B8004CE651
:100118000E94DC000E94B8004FE60E94DC000E94AA
:10012800B8000E94C60040EC0E94DC000E94B800A3
:100138000E94C20047E70E94DC000E94B8004FE618
:100148000E94DC000E94B80042E70E94DC000E9486
:10015800B8004CE60E94DC000E94B80044E60E9409
:10016800DC000E94B80036C025E137EC0E94BD00D3
:1001780008953A95F1F72A95E1F708951BB11860AB
:100188001BB908951BB1177F1BB9089501E005B984
:1001980000000000000000E005B9089540E2542F77
:1001A800507F1BB11F70152B1BB90E94CA00089500
:1001B800542F507F1BB11F70152B1BB90E94CA000A
:1001C800542F5295507F1BB11F70152B1BB90E94DD
:0601D800CA000895FFCFEC
:00000001FF
