:020000020000FC
:0200000033C00B
:100068000FEF009304010FEF0DBF08E00EBF0BEF79
:100078000AB901E004B900E10E94B0000E94D00072
:1000880006E00E94B00048E20E94DA000E94B50033
:100098004EE00E94DA000E94B50041E00E94DA00BA
:1000A8000E94B50047E00E94DA000E94B5000E9455
:1000B800BF0001E304E004E801E3009300010093BA
:1000C800020100930101009303011FC060786038AA
:1000D800B1F06074603499F06072603281F06071E0
:1000E800603169F06870683051F06470643039F0DC
:1000F8006270623021F06170613009F0089549E65C
:100108000E94DA000E94B50008950E94C30041E0F1
:100118000E94DA000E94B5000E94BF000091000111
:100128000E946A00009101010E946A000E94C300B7
:1001380040EC0E94DA000E94B5000E94BF000091C6
:1001480002010E946A00009103010E946A00009166
:1001580004010E94B000D9CF0E94B5000A95E1F7CA
:10016800089525E137EC0E94BA0008953A95F1F711
:100178002A95E1F708951BB118601BB908951BB1C2
:10018800177F1BB9089505B1016005B9000000008B
:1001980000000E7F05B9089540E2542F507F1BB12F
:1001A8001F70152B1BB90E94C7000895542F507F4C
:1001B8001BB11F70152B1BB90E94C700542F5295F5
:1001C800507F1BB11F70152B1BB90E94C7000895E3
:0201D800FFCF57
:00000001FF
