:020000020000FC
:0200000033C00B
:020004006CC0CE
:100068000FEF0DBF08E00EBF00E00AB904E00BB9BE
:1000780002E00093690001E00DBB78940BEF0AB928
:1000880001E004B900E10E94C5000E946B0106E08E
:100098000E94C50048E20E9475010E94CA004EE015
:1000A8000E9475010E94CA0041E00E9475010E94E9
:1000B800CA0047E00E9475010E94CA000E945301CD
:1000C80000E00093000100E00093010100E00093CC
:1000D80002010C94B80001E000930201189500E0B9
:1000E8000093000100E00093010100E00093020189
:1000F8000C94B80000910201013089F3FBCF00E0B5
:10010800009302010E9449010E9457010E945B016D
:100118000E94530143E70E9475010E94CA004AE306
:100128000E9475010E94CA00009100010E942201EC
:100138000E943F014DE60E9475010E94CA0049E6EF
:100148000E9475010E94CA004EE60E9475010E9435
:10015800CA004AE30E9475010E94CA000091010189
:100168000E9422010C947E0000910201013039F2B4
:10017800009101010F3F19F20E94E8000E94D4008B
:10018800F3CF0E94CA000A95E1F7089525E137ECFC
:100198000E94CF0008953A95F1F72A95E1F708955E
:1001A80020E53EED46E64A95F1F73A95E1F72A95BE
:1001B800D1F7000008950091010103950093010112
:1001C80000E00093000108950E9449010E94570130
:1001D8000E945B010E94530143E70E9475010E943F
:1001E800CA004AE30E9475010E94CA0000910001FA
:1001F80003950093000100910001009100010C3368
:10020800D1F20E9422010E943F014DE60E94750131
:100218000E94CA0049E60E9475010E94CA004EE683
:100228000E9475010E94CA004AE30E9475010E945B
:10023800CA00009101010E94220108950E948701CD
:100248001F930E9487011F930E9487011F93A0E3B9
:100258004F914A0F0E9475010E94CA004F914A0FA0
:100268000E9475010E94CA004F914A0F0E947501B1
:100278000E94CA0008950E94570140EC0E9475012F
:100288000E94CA000E94530108950E94570141E04C
:100298000E9475010E94CA000E94530108951BB173
:1002A80018601BB908951BB1177F1BB9089542E068
:1002B8000E9475010E94CA000E94CA00089501E0C8
:1002C80005B900000000000000E005B9089540E20B
:1002D800542F507F1BB11F70152B1BB90E9463014F
:1002E8000895542F507F1BB11F70152B1BB90E9406
:1002F8006301542F5295507F1BB11F70152B1BB9EA
:100308000E94630108950F921F921DEC019F10E255
:10031800119D1AE0012E102F012D109C10191F900D
:040328000F90089595
:00000001FF
