:020000020000FC
:0200000033C00B
:100068000FEF0DBF08E00EBF00E104B903B900E4CB
:100078000AB900E20AB900E10AB908E00AB908E0D9
:1000880004B90E9494000E9494000E9494000E9467
:1000980094000E9494000E9494000E9494000E9480
:1000A80094000E9494000E9494000E9494000E9470
:1000B80094000E9494000E9494000E94940008E01A
:1000C8000BB908E005B90E94940000E005B900E208
:1000D8000BB908E005B90E94940000E005B900E0FA
:1000E8000BB908E005B90E94940000E005B908E7DB
:1000F8000BB908E005B90E94940000E005B900E0DA
:100108000BB908E005B90E94940000E005B908E0C1
:100118000BB908E005B90E94940000E005B90AC0CF
:1001280025E137EC0E94990008953A95F1F72A9550
:06013800E1F70895FFCF7E
:00000001FF
