:020000020000FC
:0200000033C00B
:0200040065C0D5
:100068000FEF0DBF08E00EBF02E00093690001E04A
:100078000DBB78940BEF0AB901E004B900E10E94C6
:10008800D0000E94140106E00E94D00048E20E94BD
:100098001E010E94D5004EE00E941E010E94D5005C
:1000A80041E00E941E010E94D50047E00E941E0107
:1000B8000E94D5000E94FC0000E00093000100E0CF
:1000C800009301010C94A20001E000930101F8944F
:1000D800189500E0009301010E94000141E00E9490
:1000E8001E010E94D5000E9404010E94FC0043E703
:1000F8000E941E010E94D5000E94000140EC0E944F
:100108001E010E94D5000E94FC0000910001039589
:1001180000930001009100010E94DF0078940C9484
:100128009D0000E00093000100E0009301010C94A1
:10013800A200009101010130A1F3FBCF0091010160
:10014800013039F2009100010F3F99F30E9400013C
:1001580041E00E941E010E94D5000E9404010E94F5
:10016800FC0043E70E941E010E94D5000E94000186
:1001780040EC0E941E010E94D5000E94FC000091E4
:100188000001039500930001009100010E94DF0027
:100198000FEF0E94D000D2CF0E94D5000A95E1F758
:1001A800089525E137EC0E94DA0008953A95F1F7B1
:1001B8002A95E1F708950E9430011F930E943001AB
:1001C8001F930E9430011F93A0E34F914A0F0E9492
:1001D8001E010E94D5004F914A0F0E941E010E94E5
:1001E800D5004F914A0F0E941E010E94D500089524
:1001F8001BB118601BB908951BB1177F1BB908956F
:1002080042E00E941E010E94D5000E94D500089578
:1002180001E005B900000000000000E005B90895FC
:1002280040E2542F507F1BB11F70152B1BB90E9441
:100238000C010895542F507F1BB11F70152B1BB94B
:100248000E940C01542F5295507F1BB11F70152B23
:100258001BB90E940C0108950F921F921DEC019F7B
:1002680010E2119D1AE0012E102F012D109C10197B
:060278001F900F90089595
:00000001FF
