:020000020000FC
:0200000033C00B
:0200040068C0D2
:100068000FEF0DBF08E00EBF02E00093690001E04A
:100078000DBB78940BEF0AB901E004B900E10E94C6
:10008800C3000E94690106E00E94C30048E20E9482
:1000980073010E94C8004EE00E9473010E94C800CC
:1000A80041E00E9473010E94C80047E00E9473016A
:1000B8000E94C8000E94510100E00093000100E086
:1000C8000093010100E0009302010C94B60001E0E6
:1000D80000930201F894189500E00093000100E0F5
:1000E8000093010100E0009302010C94B600009116
:1000F8000201013089F3FBCF00E0009302010E9466
:1001080047010E9455010E9459010E94510143E78D
:100118000E9473010E94C8004AE30E9473010E9472
:10012800C800009100010E9420010E943D014DE697
:100138000E9473010E94C80049E60E9473010E9450
:10014800C8004EE60E9473010E94C8004AE30E945C
:1001580073010E94C800009101010E942001789457
:100168000C947B0000910201013031F200910101F1
:100178000F3F11F20E94E6000E94D200F3CF0E94C6
:10018800C8000A95E1F7089525E137EC0E94CD00F3
:1001980008953A95F1F72A95E1F7089520E53EED9F
:1001A80046E64A95F1F73A95E1F72A95D1F7000026
:1001B80008950091010103950093010100E0009367
:1001C800000108950E9447010E9455010E945901AB
:1001D8000E94510143E70E9473010E94C8004AE34C
:1001E8000E9473010E94C8000091000103950093CA
:1001F800000100910001009100010C33D1F20E942E
:1002080020010E943D014DE60E9473010E94C80032
:1002180049E60E9473010E94C8004EE60E947301DD
:100228000E94C8004AE30E9473010E94C80000911E
:1002380001010E94200108950E9485011F930E94D8
:1002480085011F930E9485011F93A0E34F914A0FD8
:100258000E9473010E94C8004F914A0F0E947301C7
:100268000E94C8004F914A0F0E9473010E94C80063
:1002780008950E94550140EC0E9473010E94C80035
:100288000E94510108950E94550141E00E947301A6
:100298000E94C8000E94510108951BB118601BB943
:1002A80008951BB1177F1BB9089542E00E9473019E
:1002B8000E94C8000E94C800089501E005B9000026
:1002C8000000000000E005B9089540E2542F507F77
:1002D8001BB11F70152B1BB90E9461010895542F83
:1002E800507F1BB11F70152B1BB90E946101542F41
:1002F8005295507F1BB11F70152B1BB90E946101CD
:1003080008950F921F921DEC019F10E2119D1AE0B3
:10031800012E102F012D109C10191F900F90089579
:00000001FF
