:020000020000FC
:0200000033C00B
:100068000FEF0DBF08E00EBF0FEF0AB901E004B9AA
:1000780000E10E949D000E94BC000E94A2000E9414
:10008800A2000E94A2000E94A2000E94A20048E2D0
:100098000E94C6000E94A2004FE00E94C6000E9473
:1000A800A20041E00E94C6000E94A20047E00E9410
:1000B800C6000E94A2000E94AC0048E60E94C6004A
:1000C8000E94A20045E60E94C6000E94A2004CE6DB
:1000D8000E94C6000E94A2004CE60E94C6000E9430
:1000E800A2004FE60E94C6000E94A2000E94B00033
:1000F80040EC0E94C6000E94A2000E94AC0047E7A4
:100108000E94C6000E94A2004FE60E94C6000E94FC
:10011800A20042E70E94C6000E94A2004CE60E948C
:10012800C6000E94A20044E60E94C6000E94A200E7
:100138003BC00E94A2000A95E1F7089525E137EC3B
:100148000E94A70008953A95F1F72A95E1F70895D6
:100158001BB118601BB908951BB1177F1BB908950F
:1001680001E005B900000000000000E005B90895AD
:1001780040E2542F507F1BB11F70152B1BB90E94F2
:10018800B4000895542F507F1BB11F70152B1BB955
:100198000E94B400542F5295507F1BB11F70152B2D
:0A01A8001BB90E94B4000895FFCFB8
:00000001FF
