:020000020000FC
:0200000033C00B
:100068000FEF009304010FEF0DBF08E00EBF0BEF79
:100078000AB901E004B900E10E9409010E942801BF
:1000880006E00E94090148E20E9432010E940E0126
:100098004FE00E9432010E940E0141E00E943201AD
:1000A8000E940E0147E00E9432010E940E010E9448
:1000B800180101E304E004E801E300930001009360
:1000C8000201009301010093030186C0109104010D
:1000D8001A951093040111271093050108951091A2
:1000E8000501139510930501089500910501043049
:1000F80069F30430A1F70895009100016078603831
:1001080081F16074603469F16072603251F160713C
:10011800603139F16870683021F16470643009F138
:1001280062706230F1F061706130D9F000910101C4
:1001380060786038B1F06074603499F06072603251
:1001480081F06071603169F06870683051F06470F6
:10015800643039F06270623021F06170613009F00A
:1001680008954FE30E9432010E940E010895009104
:10017800020160786038A9F36074603491F36072AA
:10018800603279F36071603161F36870683049F307
:100198006470643031F36270623019F361706130F9
:1001A80001F30091030160786038D9F2607460341B
:1001B800C1F260726032A9F26071603191F26870C8
:1001C800683079F26470643061F26270623049F2CA
:1001D8006170613031F2089541E00E9432010E945D
:1001E8000E010E9480000E941C0140EC0E94320116
:1001F8000E940E010E9418010E94BB000091040198
:100208000E9409010E947900E7CF0E940E010A9519
:10021800E1F7089525E137EC0E94130108953A9516
:10022800F1F72A95E1F708951BB118601BB90895F5
:100238001BB1177F1BB9089501E005B90000000044
:10024800000000E005B9089540E2542F507F1BB12B
:100258001F70152B1BB90E9420010895542F507F41
:100268001BB11F70152B1BB90E942001542F5295EA
:10027800507F1BB11F70152B1BB90E9420010895D8
:02028800FFCFA6
:00000001FF
