:020000020000FC
:0200000033C00B
:100068000FEF0DBF08E00EBF0FEF0AB901E004B9AA
:100078000E947B000E947B000E947B000E947B0004
:100088000E947B000E947B000E947B000E947B00F4
:100098000E947B000E947B000E947B000E947B00E4
:1000A8000E947B000E947B000E947B000E948D00C2
:1000B8000E947B000E947B000E947B000E947B00C4
:1000C8000E947B0048E20E9497000E947B004FE05C
:1000D8000E9497000E947B0041E00E9497000E94C6
:1000E8007B0047E00E9497000E947B002EC025E11C
:1000F80037EC0E94800008953A95F1F72A95E1F7C8
:10010800089501E005B900000000000000E005B90D
:10011800089540E2542F507F1BB11F70152B1BB957
:100128000E9485000895542F507F1BB11F70152B16
:100138001BB90E948500542F5295507F1BB11F7028
:0C014800152B1BB90E9485000895FFCF05
:00000001FF
