:020000020000FC
:0200000033C00B
:100068000FEF0DBF08E00EBF0BEF0AB901E004B9AE
:1000780000E10E94A0000E94C70006E00E94A000C4
:1000880048E20E94D1000E94A5004EE00E94D100E3
:100098000E94A50041E00E94D1000E94A50047E00F
:1000A8000E94D1000E94A5000E94AF0001C0FFCFAE
:1000B8000BB104700430D9F30E94B30041E00E94F0
:1000C800D1000E94A5000E94AF000E94B3000E94C8
:1000D800B7000E94AF0043E70E94D1000E94A5002C
:1000E8000E94B30040EC0E94D1000E94A5000E942B
:1000F800AF000091000103950093000100910001F9
:100108000E94E3001F930E94E3001F930E94E300F4
:100118001F934F910E94D1000E94A5004F910E9409
:10012800D1000E94A5004F910E94D1000E94A50015
:100138000FEF0E94A000BCCF0E94A5000A95E1F72E
:10014800089525E137EC0E94AA0008953A95F1F741
:100158002A95E1F708951BB118601BB908951BB1E2
:10016800177F1BB9089542E00E94D1000E94A500A4
:100178000E94A500089561E005B900000000000094
:1001880060E005B9089540E2542F507F1BB11F70FD
:10019800152B1BB90E94BF000895542F507F1BB127
:1001A8001F70152B1BB90E94BF00542F5295507F0A
:1001B8001BB11F70152B1BB90E94BF0008950F9229
:1001C8001F921DEC019F10E2119D1AE0012E102FC5
:0C01D800012D109C10191F900F9008952D
:00000001FF
